{
  "contractName": "DummyData",
  "abi": [
    {
      "inputs": [
        {
          "internalType": "uint256",
          "name": "ada",
          "type": "uint256"
        },
        {
          "internalType": "uint256",
          "name": "parsel",
          "type": "uint256"
        },
        {
          "internalType": "uint256",
          "name": "verim",
          "type": "uint256"
        },
        {
          "internalType": "string",
          "name": "kisi",
          "type": "string"
        },
        {
          "internalType": "uint256",
          "name": "ekim",
          "type": "uint256"
        },
        {
          "internalType": "uint256",
          "name": "hektar",
          "type": "uint256"
        }
      ],
      "stateMutability": "payable",
      "type": "constructor"
    },
    {
      "anonymous": false,
      "inputs": [
        {
          "indexed": false,
          "internalType": "uint256",
          "name": "kalan",
          "type": "uint256"
        }
      ],
      "name": "Sell",
      "type": "event"
    },
    {
      "inputs": [],
      "name": "kalan",
      "outputs": [
        {
          "internalType": "uint256",
          "name": "",
          "type": "uint256"
        }
      ],
      "stateMutability": "view",
      "type": "function"
    },
    {
      "inputs": [],
      "name": "queryAda",
      "outputs": [
        {
          "internalType": "uint256",
          "name": "",
          "type": "uint256"
        }
      ],
      "stateMutability": "view",
      "type": "function"
    },
    {
      "inputs": [],
      "name": "queryParsel",
      "outputs": [
        {
          "internalType": "uint256",
          "name": "",
          "type": "uint256"
        }
      ],
      "stateMutability": "view",
      "type": "function"
    },
    {
      "inputs": [],
      "name": "queryVerim",
      "outputs": [
        {
          "internalType": "uint256",
          "name": "",
          "type": "uint256"
        }
      ],
      "stateMutability": "view",
      "type": "function"
    },
    {
      "inputs": [],
      "name": "queryKisi",
      "outputs": [
        {
          "internalType": "string",
          "name": "",
          "type": "string"
        }
      ],
      "stateMutability": "view",
      "type": "function"
    },
    {
      "inputs": [],
      "name": "queryEkim",
      "outputs": [
        {
          "internalType": "uint256",
          "name": "",
          "type": "uint256"
        }
      ],
      "stateMutability": "view",
      "type": "function"
    },
    {
      "inputs": [],
      "name": "queryHektar",
      "outputs": [
        {
          "internalType": "uint256",
          "name": "",
          "type": "uint256"
        }
      ],
      "stateMutability": "view",
      "type": "function"
    },
    {
      "inputs": [
        {
          "internalType": "uint256",
          "name": "satisAmount",
          "type": "uint256"
        }
      ],
      "name": "satis",
      "outputs": [
        {
          "internalType": "uint256",
          "name": "",
          "type": "uint256"
        }
      ],
      "stateMutability": "nonpayable",
      "type": "function"
    }
  ],
  "bytecode": "0x608060405260405162000af338038062000af3833981810160405281019062000029919062000375565b6040518060c00160405280878152602001868152602001858152602001848152602001838152602001828152506001600082015181600001556020820151816001015560408201518160020155606082015181600301908051906020019062000094929190620000ed565b506080820151816004015560a08201518160050155905050620000bc620000ce60201b60201c565b60008190555050505050505062000525565b6000600160020154600160050154620000e891906200045f565b905090565b828054620000fb90620004ef565b90600052602060002090601f0160209004810192826200011f57600085556200016b565b82601f106200013a57805160ff19168380011785556200016b565b828001600101855582156200016b579182015b828111156200016a5782518255916020019190600101906200014d565b5b5090506200017a91906200017e565b5090565b5b80821115620001995760008160009055506001016200017f565b5090565b6000604051905090565b600080fd5b600080fd5b6000819050919050565b620001c681620001b1565b8114620001d257600080fd5b50565b600081519050620001e681620001bb565b92915050565b600080fd5b600080fd5b6000601f19601f8301169050919050565b7f4e487b7100000000000000000000000000000000000000000000000000000000600052604160045260246000fd5b6200024182620001f6565b810181811067ffffffffffffffff8211171562000263576200026262000207565b5b80604052505050565b6000620002786200019d565b905062000286828262000236565b919050565b600067ffffffffffffffff821115620002a957620002a862000207565b5b620002b482620001f6565b9050602081019050919050565b60005b83811015620002e1578082015181840152602081019050620002c4565b83811115620002f1576000848401525b50505050565b60006200030e62000308846200028b565b6200026c565b9050828152602081018484840111156200032d576200032c620001f1565b5b6200033a848285620002c1565b509392505050565b600082601f8301126200035a5762000359620001ec565b5b81516200036c848260208601620002f7565b91505092915050565b60008060008060008060c08789031215620003955762000394620001a7565b5b6000620003a589828a01620001d5565b9650506020620003b889828a01620001d5565b9550506040620003cb89828a01620001d5565b945050606087015167ffffffffffffffff811115620003ef57620003ee620001ac565b5b620003fd89828a0162000342565b93505060806200041089828a01620001d5565b92505060a06200042389828a01620001d5565b9150509295509295509295565b7f4e487b7100000000000000000000000000000000000000000000000000000000600052601160045260246000fd5b60006200046c82620001b1565b91506200047983620001b1565b9250817fffffffffffffffffffffffffffffffffffffffffffffffffffffffffffffffff0483118215151615620004b557620004b462000430565b5b828202905092915050565b7f4e487b7100000000000000000000000000000000000000000000000000000000600052602260045260246000fd5b600060028204905060018216806200050857607f821691505b602082108114156200051f576200051e620004c0565b5b50919050565b6105be80620005356000396000f3fe608060405234801561001057600080fd5b50600436106100885760003560e01c8063373bf6ba1161005b578063373bf6ba1461010557806350c1f5401461012357806362a2462b1461014157806397c499ce1461017157610088565b806323024d2c1461008d57806325ab3924146100ab5780632924ceec146100c95780632c7586d9146100e7575b600080fd5b61009561018f565b6040516100a29190610324565b60405180910390f35b6100b361019c565b6040516100c09190610324565b60405180910390f35b6100d16101a9565b6040516100de9190610324565b60405180910390f35b6100ef6101b6565b6040516100fc9190610324565b60405180910390f35b61010d6101c2565b60405161011a9190610324565b60405180910390f35b61012b6101c8565b6040516101389190610324565b60405180910390f35b61015b60048036038101906101569190610370565b6101d5565b6040516101689190610324565b60405180910390f35b610179610276565b6040516101869190610436565b60405180910390f35b6000600160020154905090565b6000600160040154905090565b6000600160000154905090565b60006001800154905090565b60005481565b6000600160050154905090565b6000805482111561021b576040517f08c379a0000000000000000000000000000000000000000000000000000000008152600401610212906104a4565b60405180910390fd5b8160008082825461022c91906104f3565b925050819055507f522881958b3c4a6fc0840ad3b7fb947b881edc28c004245a62541647422ade976000546040516102649190610324565b60405180910390a16000549050919050565b60606001600301805461028890610556565b80601f01602080910402602001604051908101604052809291908181526020018280546102b490610556565b80156103015780601f106102d657610100808354040283529160200191610301565b820191906000526020600020905b8154815290600101906020018083116102e457829003601f168201915b5050505050905090565b6000819050919050565b61031e8161030b565b82525050565b60006020820190506103396000830184610315565b92915050565b600080fd5b61034d8161030b565b811461035857600080fd5b50565b60008135905061036a81610344565b92915050565b6000602082840312156103865761038561033f565b5b60006103948482850161035b565b91505092915050565b600081519050919050565b600082825260208201905092915050565b60005b838110156103d75780820151818401526020810190506103bc565b838111156103e6576000848401525b50505050565b6000601f19601f8301169050919050565b60006104088261039d565b61041281856103a8565b93506104228185602086016103b9565b61042b816103ec565b840191505092915050565b6000602082019050818103600083015261045081846103fd565b905092915050565b7f496e73756666696369656e742072656d61696e696e672070726f647563740000600082015250565b600061048e601e836103a8565b915061049982610458565b602082019050919050565b600060208201905081810360008301526104bd81610481565b9050919050565b7f4e487b7100000000000000000000000000000000000000000000000000000000600052601160045260246000fd5b60006104fe8261030b565b91506105098361030b565b92508282101561051c5761051b6104c4565b5b828203905092915050565b7f4e487b7100000000000000000000000000000000000000000000000000000000600052602260045260246000fd5b6000600282049050600182168061056e57607f821691505b6020821081141561058257610581610527565b5b5091905056fea2646970667358221220f9b7aefcf960b9bf436dfefb2de94e1c29d7ed355fb3f9ba6b1dd1fc0416124764736f6c63430008090033",
  "immutableReferences": {},
  "source": "//SPDX-License-Identifier: MIT\r\npragma solidity ^0.8.9;\r\n\r\ncontract DummyData {\r\n\r\n    struct Ekin {\r\n        uint ada;\r\n        uint parsel;\r\n        uint verim;\r\n        string kisi;\r\n        uint ekim;\r\n        uint hektar;\r\n    }\r\n\r\n    uint public kalan;\r\n    Ekin private newEkin;\r\n\r\n    event Sell(uint kalan);\r\n\r\n    constructor(\r\n        uint ada, \r\n        uint parsel, \r\n        uint verim, \r\n        string memory kisi, \r\n        uint ekim, \r\n        uint hektar\r\n    ) payable {\r\n        newEkin = Ekin(ada, parsel, verim, kisi, ekim, hektar);\r\n        kalan = calculateUrun();\r\n    }\r\n\r\n    function queryAda() external view returns (uint) {\r\n        return newEkin.ada;\r\n    }\r\n\r\n    function queryParsel() external view returns (uint) {\r\n        return newEkin.parsel;\r\n    }\r\n\r\n    function queryVerim() external view returns (uint) {\r\n        return newEkin.verim;\r\n    }\r\n\r\n    function queryKisi() external view returns (string memory) {\r\n        return newEkin.kisi;\r\n    }\r\n\r\n    function queryEkim() external view returns (uint) {\r\n        return newEkin.ekim;\r\n    }\r\n\r\n    function queryHektar() external view returns (uint) {\r\n        return newEkin.hektar;\r\n    }\r\n\r\n    function calculateUrun() internal view returns (uint) {\r\n        return newEkin.hektar * newEkin.verim;\r\n    }\r\n\r\n    function satis(uint satisAmount) external returns (uint) {\r\n        require(satisAmount <= kalan, \"Insufficient remaining product\");\r\n        kalan -= satisAmount;\r\n        emit Sell(kalan);\r\n        return kalan;\r\n    }\r\n}",
  "sourcePath": "C:\\Users\\faksakal\\Desktop\\CiftlikBank\\contracts\\dummy.sol",
  "compiler": {
    "name": "solc",
    "version": "0.8.9+commit.e5eed63a.Emscripten.clang"
  },
  "schemaVersion": "3.4.16",
  "updatedAt": "2024-08-13T10:17:32.472Z",
  "devdoc": {
    "kind": "dev",
    "methods": {},
    "version": 1
  },
  "userdoc": {
    "kind": "user",
    "methods": {},
    "version": 1
  }
}