{
  "contractName": "DummyData",
  "abi": [
    {
      "inputs": [
        {
          "internalType": "uint256",
          "name": "ada",
          "type": "uint256"
        },
        {
          "internalType": "uint256",
          "name": "parsel",
          "type": "uint256"
        },
        {
          "internalType": "uint256",
          "name": "verim",
          "type": "uint256"
        },
        {
          "internalType": "string",
          "name": "kisi",
          "type": "string"
        },
        {
          "internalType": "uint256",
          "name": "ekim",
          "type": "uint256"
        },
        {
          "internalType": "uint256",
          "name": "hektar",
          "type": "uint256"
        }
      ],
      "stateMutability": "payable",
      "type": "constructor"
    },
    {
      "anonymous": false,
      "inputs": [
        {
          "indexed": false,
          "internalType": "uint256",
          "name": "kalan",
          "type": "uint256"
        }
      ],
      "name": "Sell",
      "type": "event"
    },
    {
      "inputs": [],
      "name": "kalan",
      "outputs": [
        {
          "internalType": "uint256",
          "name": "",
          "type": "uint256"
        }
      ],
      "stateMutability": "view",
      "type": "function"
    },
    {
      "inputs": [],
      "name": "queryAda",
      "outputs": [
        {
          "internalType": "uint256",
          "name": "",
          "type": "uint256"
        }
      ],
      "stateMutability": "view",
      "type": "function"
    },
    {
      "inputs": [],
      "name": "queryParsel",
      "outputs": [
        {
          "internalType": "uint256",
          "name": "",
          "type": "uint256"
        }
      ],
      "stateMutability": "view",
      "type": "function"
    },
    {
      "inputs": [],
      "name": "queryVerim",
      "outputs": [
        {
          "internalType": "uint256",
          "name": "",
          "type": "uint256"
        }
      ],
      "stateMutability": "view",
      "type": "function"
    },
    {
      "inputs": [],
      "name": "queryKisi",
      "outputs": [
        {
          "internalType": "string",
          "name": "",
          "type": "string"
        }
      ],
      "stateMutability": "view",
      "type": "function"
    },
    {
      "inputs": [],
      "name": "queryEkim",
      "outputs": [
        {
          "internalType": "uint256",
          "name": "",
          "type": "uint256"
        }
      ],
      "stateMutability": "view",
      "type": "function"
    },
    {
      "inputs": [],
      "name": "queryHektar",
      "outputs": [
        {
          "internalType": "uint256",
          "name": "",
          "type": "uint256"
        }
      ],
      "stateMutability": "view",
      "type": "function"
    },
    {
      "inputs": [
        {
          "internalType": "uint256",
          "name": "satisAmount",
          "type": "uint256"
        }
      ],
      "name": "satis",
      "outputs": [
        {
          "internalType": "uint256",
          "name": "",
          "type": "uint256"
        }
      ],
      "stateMutability": "nonpayable",
      "type": "function"
    }
  ],
  "bytecode": "0x608060405260405162000c7738038062000c7783398181016040528101906200002991906200029f565b6040518060c001604052808781526020018681526020018581526020018481526020018381526020018281525060015f820151815f0155602082015181600101556040820151816002015560608201518160030190816200008b919062000584565b506080820151816004015560a08201518160050155905050620000b3620000c460201b60201c565b5f81905550505050505050620006df565b5f600160020154600160050154620000dd919062000695565b905090565b5f604051905090565b5f80fd5b5f80fd5b5f819050919050565b6200010781620000f3565b811462000112575f80fd5b50565b5f815190506200012581620000fc565b92915050565b5f80fd5b5f80fd5b5f601f19601f8301169050919050565b7f4e487b71000000000000000000000000000000000000000000000000000000005f52604160045260245ffd5b6200017b8262000133565b810181811067ffffffffffffffff821117156200019d576200019c62000143565b5b80604052505050565b5f620001b1620000e2565b9050620001bf828262000170565b919050565b5f67ffffffffffffffff821115620001e157620001e062000143565b5b620001ec8262000133565b9050602081019050919050565b5f5b8381101562000218578082015181840152602081019050620001fb565b5f8484015250505050565b5f620002396200023384620001c4565b620001a6565b9050828152602081018484840111156200025857620002576200012f565b5b62000265848285620001f9565b509392505050565b5f82601f8301126200028457620002836200012b565b5b81516200029684826020860162000223565b91505092915050565b5f805f805f8060c08789031215620002bc57620002bb620000eb565b5b5f620002cb89828a0162000115565b9650506020620002de89828a0162000115565b9550506040620002f189828a0162000115565b945050606087015167ffffffffffffffff811115620003155762000314620000ef565b5b6200032389828a016200026d565b93505060806200033689828a0162000115565b92505060a06200034989828a0162000115565b9150509295509295509295565b5f81519050919050565b7f4e487b71000000000000000000000000000000000000000000000000000000005f52602260045260245ffd5b5f6002820490506001821680620003a557607f821691505b602082108103620003bb57620003ba62000360565b5b50919050565b5f819050815f5260205f209050919050565b5f6020601f8301049050919050565b5f82821b905092915050565b5f600883026200041f7fffffffffffffffffffffffffffffffffffffffffffffffffffffffffffffffff82620003e2565b6200042b8683620003e2565b95508019841693508086168417925050509392505050565b5f819050919050565b5f6200046c620004666200046084620000f3565b62000443565b620000f3565b9050919050565b5f819050919050565b62000487836200044c565b6200049f620004968262000473565b848454620003ee565b825550505050565b5f90565b620004b5620004a7565b620004c28184846200047c565b505050565b5b81811015620004e957620004dd5f82620004ab565b600181019050620004c8565b5050565b601f82111562000538576200050281620003c1565b6200050d84620003d3565b810160208510156200051d578190505b620005356200052c85620003d3565b830182620004c7565b50505b505050565b5f82821c905092915050565b5f6200055a5f19846008026200053d565b1980831691505092915050565b5f62000574838362000549565b9150826002028217905092915050565b6200058f8262000356565b67ffffffffffffffff811115620005ab57620005aa62000143565b5b620005b782546200038d565b620005c4828285620004ed565b5f60209050601f831160018114620005fa575f8415620005e5578287015190505b620005f1858262000567565b86555062000660565b601f1984166200060a86620003c1565b5f5b8281101562000633578489015182556001820191506020850194506020810190506200060c565b868310156200065357848901516200064f601f89168262000549565b8355505b6001600288020188555050505b505050505050565b7f4e487b71000000000000000000000000000000000000000000000000000000005f52601160045260245ffd5b5f620006a182620000f3565b9150620006ae83620000f3565b9250828202620006be81620000f3565b91508282048414831517620006d857620006d762000668565b5b5092915050565b61058a80620006ed5f395ff3fe608060405234801561000f575f80fd5b5060043610610086575f3560e01c8063373bf6ba11610059578063373bf6ba1461010257806350c1f5401461012057806362a2462b1461013e57806397c499ce1461016e57610086565b806323024d2c1461008a57806325ab3924146100a85780632924ceec146100c65780632c7586d9146100e4575b5f80fd5b61009261018c565b60405161009f9190610313565b60405180910390f35b6100b0610198565b6040516100bd9190610313565b60405180910390f35b6100ce6101a4565b6040516100db9190610313565b60405180910390f35b6100ec6101af565b6040516100f99190610313565b60405180910390f35b61010a6101ba565b6040516101179190610313565b60405180910390f35b6101286101bf565b6040516101359190610313565b60405180910390f35b6101586004803603810190610153919061035a565b6101cb565b6040516101659190610313565b60405180910390f35b610176610268565b604051610183919061040f565b60405180910390f35b5f600160020154905090565b5f600160040154905090565b5f60015f0154905090565b5f6001800154905090565b5f5481565b5f600160050154905090565b5f8054821115610210576040517f08c379a000000000000000000000000000000000000000000000000000000000815260040161020790610479565b60405180910390fd5b815f8082825461022091906104c4565b925050819055507f522881958b3c4a6fc0840ad3b7fb947b881edc28c004245a62541647422ade975f546040516102579190610313565b60405180910390a15f549050919050565b60606001600301805461027a90610524565b80601f01602080910402602001604051908101604052809291908181526020018280546102a690610524565b80156102f15780601f106102c8576101008083540402835291602001916102f1565b820191905f5260205f20905b8154815290600101906020018083116102d457829003601f168201915b5050505050905090565b5f819050919050565b61030d816102fb565b82525050565b5f6020820190506103265f830184610304565b92915050565b5f80fd5b610339816102fb565b8114610343575f80fd5b50565b5f8135905061035481610330565b92915050565b5f6020828403121561036f5761036e61032c565b5b5f61037c84828501610346565b91505092915050565b5f81519050919050565b5f82825260208201905092915050565b5f5b838110156103bc5780820151818401526020810190506103a1565b5f8484015250505050565b5f601f19601f8301169050919050565b5f6103e182610385565b6103eb818561038f565b93506103fb81856020860161039f565b610404816103c7565b840191505092915050565b5f6020820190508181035f83015261042781846103d7565b905092915050565b7f496e73756666696369656e742072656d61696e696e672070726f6475637400005f82015250565b5f610463601e8361038f565b915061046e8261042f565b602082019050919050565b5f6020820190508181035f83015261049081610457565b9050919050565b7f4e487b71000000000000000000000000000000000000000000000000000000005f52601160045260245ffd5b5f6104ce826102fb565b91506104d9836102fb565b92508282039050818111156104f1576104f0610497565b5b92915050565b7f4e487b71000000000000000000000000000000000000000000000000000000005f52602260045260245ffd5b5f600282049050600182168061053b57607f821691505b60208210810361054e5761054d6104f7565b5b5091905056fea2646970667358221220d83caf8571393f07cd4552b4f16c8b68b1f174ab502618413ad34bb739e5cf6b64736f6c63430008150033",
  "immutableReferences": {},
  "source": "//SPDX-License-Identifier: MIT\r\npragma solidity ^0.8.9;\r\n\r\ncontract DummyData {\r\n\r\n    struct Ekin {\r\n        uint ada;\r\n        uint parsel;\r\n        uint verim;\r\n        string kisi;\r\n        uint ekim;\r\n        uint hektar;\r\n    }\r\n\r\n    uint public kalan;\r\n    Ekin private newEkin;\r\n\r\n    event Sell(uint kalan);\r\n\r\n    constructor(\r\n        uint ada, \r\n        uint parsel, \r\n        uint verim, \r\n        string memory kisi, \r\n        uint ekim, \r\n        uint hektar\r\n    ) payable {\r\n        newEkin = Ekin(ada, parsel, verim, kisi, ekim, hektar);\r\n        kalan = calculateUrun();\r\n    }\r\n\r\n    function queryAda() external view returns (uint) {\r\n        return newEkin.ada;\r\n    }\r\n\r\n    function queryParsel() external view returns (uint) {\r\n        return newEkin.parsel;\r\n    }\r\n\r\n    function queryVerim() external view returns (uint) {\r\n        return newEkin.verim;\r\n    }\r\n\r\n    function queryKisi() external view returns (string memory) {\r\n        return newEkin.kisi;\r\n    }\r\n\r\n    function queryEkim() external view returns (uint) {\r\n        return newEkin.ekim;\r\n    }\r\n\r\n    function queryHektar() external view returns (uint) {\r\n        return newEkin.hektar;\r\n    }\r\n\r\n    function calculateUrun() internal view returns (uint) {\r\n        return newEkin.hektar * newEkin.verim;\r\n    }\r\n\r\n    function satis(uint satisAmount) external returns (uint) {\r\n        require(satisAmount <= kalan, \"Insufficient remaining product\");\r\n        kalan -= satisAmount;\r\n        emit Sell(kalan);\r\n        return kalan;\r\n    }\r\n}",
  "sourcePath": "C:\\Users\\faksakal\\Desktop\\CiftlikBank\\contracts\\dummy.sol",
  "compiler": {
    "name": "solc",
    "version": "0.8.21+commit.d9974bed.Emscripten.clang"
  },
  "schemaVersion": "3.4.16",
  "updatedAt": "2024-08-12T14:02:26.635Z",
  "devdoc": {
    "kind": "dev",
    "methods": {},
    "version": 1
  },
  "userdoc": {
    "kind": "user",
    "methods": {},
    "version": 1
  }
}